:020000040800F2
:10000000C806002039020008391100083111000823
:1000100035110008310400085D11000800000000DF
:100020000000000000000000000000004111000876
:1000300035040008000000003D11000845110008CB
:10004000530200085302000853020008530200083C
:10005000530200085302000853020008530200082C
:10006000530200085302000853020008530200081C
:10007000530200085302000853020008530200080C
:100080005302000853020008530200080000000059
:100090000000000000000000000000005302000803
:1000A00053020008530200085302000853020008DC
:1000B00053020008530200085302000853020008CC
:1000C00053020008530200085302000853020008BC
:1000D0005302000853020008530200080000000009
:1000E00053020008530200085302000800000000F9
:1000F00000000000000000000000000053020008A3
:1001000000000000530200085302000853020008D8
:1001100000000000000000000000000000000000DF
:10012000530200085302000853020008530200085B
:100130005302000800000000000000000000000062
:100140000000000000000000000000005302000852
:10015000530200085302000853020008530200082B
:1001600053020008530200080000000000000000D5
:10017000000000000000000000000000000000007F
:100180000000000053020008000000000000000012
:10019000530200085302000800F002F800F03CF897
:1001A0000AA090E8000C82448344AAF10107DA45D2
:1001B00001D100F031F8AFF2090EBAE80F0013F0E8
:1001C000010F18BFFB1A43F001031847D8100000B5
:1001D000F8100000103A24BF78C878C1FAD8520746
:1001E00024BF30C830C144BF04680C6070470000B1
:1001F0000023002400250026103A28BF78C1FBD830
:10020000520728BF30C148BF0B6070471FB501F0CF
:1002100030F81FBD10B510BD00F0D0F81146FFF743
:10022000F5FF00F09DFF00F0EEF803B4FFF7F2FFDA
:1002300003BC00F0F5F80000094880470948004772
:10024000FEE7FEE7FEE7FEE7FEE7FEE7FEE7FEE786
:10025000FEE7FEE704480549054A064B70470000E3
:100260004911000899010008C8000020C8060020B4
:10027000C8020020C802002053EA020C00F0698086
:100280002DE9F04B4FF00006002B1FBFB3FA83F5AA
:1002900003FA05F424FA05F65E4012BF1643B2FADB
:1002A00082F502FA05F4C5F120051EBF22FA05FC0D
:1002B00044EA0C04203556EA044C4FEA144418BFB3
:1002C000641C4FF000084FF00009904271EB030CE2
:1002D00039D3002919BFB1FA81F701FA07F6B0FA4C
:1002E00080F700FA07F6C7F120071EBF20FA07FCC7
:1002F00046EA0C062037B6FBF4FCA7EB0507103FD7
:1003000007F01F0BCBF120062CFA06F60CFA0BFBBC
:1003100044BFB3460026202FA4BF5E464FF0000B1B
:100320005BEA060C08BF4FF0010B19EB0B0948EB19
:100330000608ABFB027C06FB02CC0BFB03CCC01B0C
:1003400071EB0C01C1E70B46024641464846BDE849
:10035000F08B13B5084318BF4FF0FF300146AFF3E1
:100360000080BDE81C4070474FF0000200B5134606
:1003700094469646203922BFA0E80C50A0E80C50C5
:10038000B1F12001BFF4F7AF090728BFA0E80C5076
:1003900048BF0CC05DF804EB890028BF40F8042B6F
:1003A00008BF704748BF20F8022B11F0804F18BFDC
:1003B00000F8012B7047704770477047754600F092
:1003C0002BF8AE4605006946534620F007008546E7
:1003D00018B020B5FFF73EFFBDE820404FF0000603
:1003E0004FF000074FF000084FF0000BAC46ACE8B0
:1003F000C009ACE8C009ACE8C009ACE8C00921F00C
:1004000007018D46704710B50446AFF300802046C3
:10041000BDE81040FFF709BF0048704710000020FA
:1004200001491820ABBEFEE726000200704700001D
:10043000FEE70000704700002DE9F04F82B000F1A8
:100440003E4241F2000502F1FF77C4F202050722A5
:100450004FEAB726A84208BF0422042E38BF4FEA4D
:10046000B7224FF0010A002400274FF00008009245
:1004700008E000BF023708F10108202F04F104044E
:1004800000F0B4800E680AFA08F916EA090FF1D0F4
:10049000D1F804A00AF0030BABF10106012E17D826
:1004A0000322866802FA07FECA6826EA0E06BA40E8
:1004B000324382604268CAF3001522EA090205FA53
:1004C00008F54FEA480C6FEA0E062A4342600BE03B
:1004D0000322BA40D643BBF1030FBC4604D1BC464D
:1004E0004FF0030B22E000BFC2688D68324005FA6E
:1004F0000CF52A43BBF1020FC26017D16FF0030263
:1005000002EA5802024404F01C030F25D2F820E04E
:1005100005FA03FA0D692EEA0A0E05FA03F343EA17
:100520000E031362D1F804A00AF0030B02680BFA61
:100530000CF332401A431AF4403F4FF0010A0260B4
:1005400098D0002243F644030192C4F202031A68D1
:1005500043F6004E42F480421A601A68C4F2010E5B
:1005600002F480420192019A28F003024FF6084CEF
:100570007244CFF6FF7C52F80C3004F00C060F25C5
:10058000B540AB43009D05FA06F6334342F80C3004
:10059000DEF808204B6842EA090643F60C4CDD02FF
:1005A00058BF22EA0906CEF80860C4F2010CDCF854
:1005B00000209D0242EA090658BF22EA0906CCF84B
:1005C0000060DEF804209D0342EA090658BF22EAD3
:1005D0000906CEF80460DEF80020DB0342EA0906D3
:1005E00058BF22EA0906CEF8006043E702B0BDE832
:1005F000F08F000040F2C400C2F2000000687047B3
:1006000070B5B8B3044690F83D0028B9002084F8CE
:100610003C00204600F0C4F9242084F83D00206806
:10062000016821F001010160016841F400410160AD
:10063000016821F40041016000F05EFB48F2804156
:10064000C0F21E0140F60013D4F804E088424FF0D7
:100650000001C0F23D0348F2A16C4FF0000238BF28
:1006600001219842C0F2010C38BF0122E64538BF93
:100670000A460AB1012070BD4DF68361C4F21B31F8
:10068000A0FB01122168950C4B684FF4967623F07D
:100690003F0343EA9243754344F6D3564B60C1F29D
:1006A00062060B6AA5FB0656B50923F03F03E64533
:1006B00038BF950C6A1C1A430A62CA6948F2A066E0
:1006C0004CF6FF73C0F20106B64522EA03020BD8CE
:1006D00001384FEA4E03B0FBF3F001306FF31F30E7
:1006E000042898BF04201EE0A368013863B11923D1
:1006F0000EFB03F3B0FBF3F001306FF31F3078B162
:1007000000F5804008E000BF0EEB4E03B0FBF3F0B5
:1007100001306FF31F3028B100F5004003E000BF47
:10072000012000E001201043C8610868D4E90723D4
:1007300020F0C000104318430860886848F2FF3278
:1007400004F10C0690434CCE18431043A569886011
:10075000C86820F0FF0030432843C860086840F0B4
:100760000100086000202021206484F83D102063EF
:1007700084F83E0070BD00002DE9F04F81B01D46A9
:10078000174688460446FFF735FF94F83D102029A8
:1007900018D106462168886980070FD5FFF72AFF20
:1007A000801B1928F6D900202021206384F83D10F1
:1007B00084F83E00216C0225C1E000BF94F83C00A3
:1007C000012805D10225284601B0BDE8F08F00BF01
:1007D0004FF0010984F83C900868C00703D108680D
:1007E00040F00100086008684FF0000A20F4006043
:1007F0000860242084F83D000020CFF6FF70C4F884
:1008000040A0E06208F0FE08012F88BFB94605F15C
:10081000010BA027086840F4807008604869C00791
:1008200010D1BBF1000F57D0002D00F09D8000BF0C
:10083000FFF7E0FE801BA84200F29880216848691B
:10084000C007F5D0C1F81080FFF7D4FE21684B69CE
:100850004A6994F83D60A02E06461ED013F00200AF
:1008600008BF12F4806018D1FFF7C4FE35B1801BB9
:10087000A84288BF84F83D7002E000BF84F83D7054
:1008800021684A69486994F83D30A02B05D012F0E0
:10089000020208BF10F48060E6D0202084F83D00FA
:1008A00048690A68800742F400720A6022D46FF433
:1008B000806048618869800709D500BFFFF79AFE0C
:1008C000801B192832D8216888698007F6D40AF17C
:1008D000010ACA459ED13BE04869C007B2D14869C8
:1008E000C00704BF48695FEAC070ABD14869C00760
:1008F000F2D0A7E70025009548690090886900902C
:1009000000988869800708D5FFF774FE801B1928B6
:100910000CD8206880698007F6D4202084F83D0038
:1009200084F83C50284601B0BDE8F08F002020211B
:10093000206384F83D1084F83E00216C012541F0CD
:100940002001216484F83C00284601B0BDE8F08F06
:10095000202084F83D000020012584F83C00284632
:1009600001B0BDE8F08F00BFFFF744FE002020215A
:10097000206384F83D1084F83E00216C032541F08B
:1009800020012164216884F83C000868C00544BF48
:100990004FF400702064284601B0BDE8F08F0000DD
:1009A0002DE9F04786B0006845F60047C4F200071D
:1009B000B84203D006B0BDE8F08700BF002643F67A
:1009C00030050196C4F20205286801AC40F004002D
:1009D000286028684FF0120800F004000190019888
:1009E000019628684FF0030940F00100286028684C
:1009F0004FF0040A00F00100019001984FF40070DC
:100A0000019007F5D6302146CDE90286CDF8109049
:100A1000CDF814A0FFF710FD4FF48070CDE9010868
:100A200003A880E8400607F5D2302146FFF704FD11
:100A30000096286940F400002861286900F400004D
:100A40000090009806B0BDE8F087000040F200007A
:100A500040F2C401C2F20000C2F2000100780A684C
:100A6000104408607047000080B543F60040C4F2AF
:100A70000200016841F400710160016841F4806185
:100A80000160016841F480710160032000F074F896
:100A90000F2000F005F800F027F8002080BD0000CE
:100AA00070B540F20006C2F2000640F2080132784A
:100AB000C2F200014FF47A730968B3FBF2F2044604
:100AC000B1FBF2F1084600F01DFB0F2C4FF00105C1
:100AD00008D838B94FF0FF3021460022002500F039
:100AE0001FF87460284670BD82B0002043F64001B4
:100AF0000190C4F202014A6842F480424A604A68A6
:100B000002F480420192019A0090086840F08050FF
:100B10000860086800F080500090009802B07047AC
:100B200010B54EF60C5CCEF2000CDCF80030C3F3CE
:100B3000022E8EF00704042C28BF0424BEF1030308
:100B40004FF0FF3E0EFA04F438BF0023A143994052
:100B50000EFA03F39A43114300F00F02043A624481
:100B600009010C3200F16043B0F1FF3FC8BF03F54B
:100B70006442117010BD00004EF60C51CEF200011F
:100B80000A684FF6FF031A4060F30A2242F08060C1
:100B900040F0FD70086070472DE9F041002800F03A
:100BA0008B8043F60808C4F202080446D8F8F8031C
:100BB0000D4600F00700884207D288F8F853D8F8AD
:100BC000F80300F00700A84276D12068810717D506
:100BD000410705D5D8F8001041F4E051C8F80010DD
:100BE000010705D5D8F8001041F46041C8F800109D
:100BF000D8F80010A26821F0F0011143C8F80010E5
:100C0000C0073FD1D8F8F80300F00700A84207D981
:100C100088F8F853D8F8F80300F00700A8424BD141
:100C20002068410707D5D8F80010E26821F4E051A8
:100C30001143C8F80010000708D5D8F80000216952
:100C400020F4604040EAC100C8F8000000F068F8F5
:100C5000D8F8001041F28C22C1F30311C0F6000253
:100C6000515C40F2080220FA01F140F20400C2F2A5
:100C700000000068C2F200021160FFF711FF0020BF
:100C8000BDE8F0816068811E022907D258F8081C6F
:100C900089015CBF0120BDE8F08111E0012807D186
:100CA00058F8081C89035CBF0120BDE8F08107E00B
:100CB00058F8081C890703D40120BDE8F08100BF63
:100CC000D8F8001021F003010843C8F80000FFF72E
:100CD00091FC064641F28837D8F80000616800F0C0
:100CE0000C00B0EB810F8DD0FFF784FC801BB84265
:100CF000F2D90320BDE8F08140F2080043F6080174
:100D0000C2F20000C4F202010068096841F29C22AC
:100D1000C1F38221C0F60002515CC8407047000058
:100D200010B543F60404C4F20204606800F00C003D
:100D300008280BD0042819BF42F20040C0F2F4008A
:100D400047F64000C0F27D1010BD00BF206821684A
:100D50002368490247F64001C0F27D1100F03F02CE
:100D6000C3F388105CBF42F20041C0F2F401A1FB62
:100D700000010023FFF780FA21680222C1F301413C
:100D800002EB4101B0FBF1F010BD00002DE9F04194
:100D900082B000286AD00446007843F60006C007F7
:100DA000C4F202060BD0B06800F00C00042840F03A
:100DB000A1803068800302D56068002856D0207872
:100DC00080071AD5B06810F00C0F09D0B06800F099
:100DD0000C00082840F0A8807068400200F1A48050
:100DE0003068800702D5E06801283FD1306821696A
:100DF00020F0F80040EAC10030602078000739D4C4
:100E0000207840074ED4A5695DB3B06800F00C00AF
:100E1000082840F0BD80012D28D07068E16900F4F9
:100E200080028A4222D1216A00F03F028A421DD10B
:100E300047F6C071626A0140B1EB821F16D1A26A07
:100E40000023CFF6FF7303EBC23200F440316FF39F
:100E50000F0291420AD1E16A00F07060B0EB016FBD
:100E600004D1002002B0BDE8F08100BF012002B033
:100E7000BDE8F0816069002840F20000C4F247201C
:100E800076D00121C0F8801EFFF7B4FB054600BFF5
:100E9000706F8007B4D4FFF7ADFB401B0228F7D971
:100EA000DDE000BF306C10F080580AD100200190C6
:100EB000306C40F080503064306C00F08050019015
:100EC000019847F20007C4F200073868C00541D412
:100ED000386840F480703860FFF78CFB054600BF2F
:100EE0003868C00536D4FFF785FB401B0228F7D9C8
:100EF000B5E000BFB06800F00C00082803D17068AE
:100F000040023FF556AF6068B0F5803F07D0B0F5BE
:100F1000A02F40F08D80306840F480203060306831
:100F200040F4803030608DE0E068002852D000202E
:100F3000C4F2472001210160FFF75CFB054600BFBA
:100F4000306880073FF552AFFFF754FB401B022883
:100F5000F6D984E0A068012805D005284ED1306F6D
:100F600040F004003067306F40F0010030674FE020
:100F70000021C0F8801EFFF73DFB0546706F80071B
:100F80007FF53EAFFFF736FB401B0228F6D966E03F
:100F90000027C4F2472700203866FFF72BFB022DFD
:100FA00005460BD1306880015ED5FFF723FB401B5F
:100FB00002284FF00300F5D954E700BF30688001E4
:100FC0007FF54FAFFFF716FB401B02284FF00300E1
:100FD000F4D947E70020C4F2472000210160FFF761
:100FE00009FB0546306880077FF507AFFFF702FB76
:100FF000401B02284FF00300F4D933E7316F00287B
:1010000021F001013167316F21F0040131674DD0CA
:10101000FFF7F0FA054641F2883700BF306F8007CE
:1010200056D4FFF7E7FA401BB842F7D917E000BFE4
:101030003168002821F480313160316821F4802149
:1010400031604FD0FFF7D6FA054600BF3068800305
:101050003FF5B5AEFFF7CEFA401B6428F6D9032062
:1010600002B0BDE8F08100BF04F11C052FCD08439C
:101070000021CFF6FF7140EA821001EBC3316FF31C
:101080000F0140EA05600843706001203866FFF7F1
:10109000B1FA0446306880013FF5E3AEFFF7AAFAE3
:1010A000001B02284FF00300F4D9DBE6FFF7A2FA99
:1010B000054641F2883700BF306F800708D5FFF73B
:1010C00099FA401BB8424FF00300F5D9CAE600BFB9
:1010D000B8F1000F7FF497AE306C20F08050306490
:1010E00091E600BFFFF786FA054600BF306880032F
:1010F0007FF565AEFFF77EFA401B64284FF00300D2
:10110000F4D9AFE6411E0020B0EB116F1CBF0120E7
:1011100070474EF21002CEF2000251604EF623519B
:10112000CEF20001F0230B70072190601160704730
:10113000FEE70000FEE70000FEE700007047000049
:1011400070470000FFF782BC4EF68850CEF20000D8
:10115000016841F47001016070470000FEE7000083
:1011600092B043F63005C4F20205FFF77DFC06ACF1
:10117000201D2C21FFF7F8F800260596CDE903661F
:10118000CDE901660096286940F080502861286901
:1011900000F080500090009847F200000096C4F2E2
:1011A0000000016841F440410160006800F44040E3
:1011B00000900098022006900120099010200A90CB
:1011C00020460C96FFF7E2FD20B1EFF3108072B6D7
:1011D000FEE700BF0F20CDE9010601A80021CDE9FF
:1011E00003660596FFF7D8FC20B1EFF3108072B6C6
:1011F000FEE700BF00210691286845F6004240F056
:1012000004002860286848F2A06300F004000690FB
:10121000069806912868C4F2000240F00100286098
:101220002868C0F2010300F001000690069840F221
:101230007000C2F200004FF48046C0E90023C0E90C
:101240000211C0E90461C0E906110162FFF7D8F993
:1012500020B1EFF3108072B6FEE700BF40F27000DD
:10126000C2F200006C2102220A23FFF785FA00BFB8
:10127000FEE7F1EE100A4FF6FF71C0F2C03120EA2E
:10128000010040F04070E1EE100A704700000000DD
:101290000000000001020304060708090000000026
:1012A00001020304C8120008000000201000000022
:1012B000D4010008D812000810000020B806000071
:1012C000F001000800000000010000001000000014
:0812D0000024F40000000000FE
:040000050800019955
:00000001FF
